:100000000C9434000C94C6000C9451000C945100D4
:100010000C9451000C9451000C9451000C9451001C
:100020000C9451000C9451000C9451000C9451000C
:100030000C9451000C9451000C9451000C945100FC
:100040000C9451000C9451000C9451000C945100EC
:100050000C9451000C9451000C9451000C945100DC
:100060000C9451000C94510011241FBECFEFD8E026
:10007000DEBFCDBF11E0A0E0B1E0ECE7F6E002C0EA
:1000800005900D92AC30B107D9F721E0ACE0B1E0BA
:1000900001C01D92AE30B207E1F70E945D010C94E1
:1000A0003C030C940000539A1BB8E89AE9E6F0E090
:1000B00080818160808383E08093810084B181614D
:1000C00084B915B888B188B908951092C50087E63B
:1000D0008093C40080E48093C00088E18093C100D5
:1000E00086E08093C2000895E0E8F0E08081826AB3
:1000F0008083E1E8F0E080818B61808387E893E191
:10010000909387008093860084B1836084B90895BA
:10011000CF93DF9300D000D0CDB7DEB7009769F45E
:1001200088EC90E090938900809388000F900F9066
:100130000F900F90DF91CF910895B0E0A0E08983F8
:100140009A83AB83BC83BC01CD010E943A022AE7AB
:1001500037EC41EB50E469837A838B839C8369811C
:100160007A818B819C810E94A00269837A838B8330
:100170009C8369817A818B819C810E940B02462F2E
:10018000572F5093890040938800D0CF1F921FB6FD
:100190001F9211248F939F934A9B0AC0109285004F
:1001A000109284009F918F911F901FBE1F901895F1
:1001B000809184009091850090930D0180930C01B3
:1001C000F1CF9091C00095FFFCCF8093C600809145
:1001D000C00086FFFCCF80E48093C0000895CF93D9
:1001E000DF93EC018991811105C08AE0DF91CF9105
:1001F0000C94E1000E94E100F5CFCF93DF9300D093
:1002000000D0CDB7DEB710920D0110920C015B9AB1
:1002100025E32A95F1F700005B9880910C019091FD
:100220000D01892BD1F380910C0190910D019C015E
:1002300050E040E029833A834B835C83CA01B901D3
:100240000E943A022DEB37E346E856E369837A834E
:100250008B839C8369817A818B819C810E94A0021F
:1002600020E03CEF45E057E469837A838B839C83ED
:1002700069817A818B819C810E94A00220E030E01C
:1002800040E05FE369837A838B839C8369817A8111
:100290008B819C810E94A00269837A838B839C83DB
:1002A00069817A818B819C810E9404020F900F905A
:1002B0000F900F90DF91CF910895CDB7DEB72997BA
:1002C0000FB6F894DEBF0FBECDBF0E9465000E943E
:1002D00053000E947400789480E0F12C05E010E057
:1002E00098ECC92ED12C2CEBA22EBB24B394309BBE
:1002F00018C0FF20B1F095B115B890E0882361F0E7
:1003000060E071E0CE0101960E943503CE010196B6
:100310000E94EF0090E080E005E010E0F82E892FC9
:10032000E6CF023011058CF42C9A982F8111F6CF6C
:1003300064E071E0CE0101960E943503CE01019682
:100340000E94EF0091E081E0E9CF2FEF89E698E18C
:10035000215080409040E1F700C000000E94FD0065
:100360006E837F83888799876A307105810591053F
:100370000CF045C068E071E0CE0101960E943503A3
:10038000CE0101960E94EF00289AB0928900A092B7
:100390008800AFEFB9E628E1A150B0402040E1F776
:1003A00000C00000D0928900C09288008FEF99E6CB
:1003B000A8E181509040A040E1F700C00000B09259
:1003C0008900A0928800BFEF29E688E1B150204063
:1003D0008040E1F700C000002898D0928900C092C8
:1003E00088009FEFABE7B2E99150A040B040E1F741
:1003F00000C00000025011098F2D90E08FCFD092E5
:100400008900C0928800F8CF0E940B026894B11155
:100410000C949A0208950E947F0288F09F5798F0EA
:10042000B92F9927B751B0F0E1F0660F771F881FF9
:10043000991F1AF0BA95C9F714C0B13091F00E9413
:100440009902B1E008950C949902672F782F8827BC
:10045000B85F39F0B93FCCF3869577956795B3953A
:10046000D9F73EF490958095709561957F4F8F4FA9
:100470009F4F0895E89409C097FB3EF490958095AE
:10048000709561957F4F8F4F9F4F9923A9F0F92F5A
:1004900096E9BB279395F695879577956795B795D8
:1004A000F111F8CFFAF4BB0F11F460FF1BC06F5FBE
:1004B0007F4F8F4F9F4F16C0882311F096E911C0D0
:1004C000772321F09EE8872F762F05C0662371F0F1
:1004D00096E8862F70E060E02AF09A95660F771F05
:1004E000881FDAF7880F9695879597F9089557FD35
:1004F0009058440F551F59F05F3F71F04795880F92
:1005000097FB991F61F09F3F79F087950895121628
:1005100013061406551FF2CF4695F1DF08C01616D4
:1005200017061806991FF1CF869571056105089485
:100530000895E894BB2766277727CB0197F908959C
:100540000E94B3020C9424030E94160338F00E9408
:100550001D0320F0952311F00C940D030C9413034C
:1005600011240C949A020E94770270F3959FC1F3B4
:10057000950F50E0551F629FF001729FBB27F00D51
:10058000B11D639FAA27F00DB11DAA1F649F6627A6
:10059000B00DA11D661F829F2227B00DA11D621FF5
:1005A000739FB00DA11D621F839FA00D611D221FAF
:1005B000749F3327A00D611D231F849F600D211D93
:1005C000822F762F6A2F11249F5750409AF0F1F016
:1005D00088234AF0EE0FFF1FBB1F661F771F881F7F
:1005E00091505040A9F79E3F510580F00C940D03A7
:1005F0000C949A025F3FE4F3983ED4F38695779586
:100600006795B795F795E7959F5FC1F7FE2B880F24
:10061000911D9695879597F9089597F99F6780E8BA
:1006200070E060E008959FEF80EC089500240A9444
:100630001616170618060906089500240A941216BD
:100640001306140605060895092E0394000C11F4F0
:10065000882352F0BB0F40F4BF2B11F460FF04C09D
:100660006F5F7F4F8F4F9F4F0895FB01DC0101901B
:0C0670000D920020E1F70895F894FFCFF0
:0C067C0052454300454D500044495300D6
:00000001FF
