:100000000C9434000C94C2000C9451000C945100D8
:100010000C9451000C9451000C9451000C9451001C
:100020000C9451000C9451000C9451000C9451000C
:100030000C9451000C9451000C9451000C945100FC
:100040000C9451000C9451000C9451000C945100EC
:100050000C9451000C9451000C9451000C945100DC
:100060000C9451000C94510011241FBECFEFD8E026
:10007000DEBFCDBF11E0A0E0B1E0E4EBFBE002C0E9
:1000800005900D92A430B107D9F721E0A4E0B1E0CA
:1000900001C01D92A630B207E1F70E9459010C94ED
:1000A000D8050C940000539A1BB8E89AE9E6F0E0F2
:1000B00080818160808383E080938100209A15B8DD
:1000C00008951092C50087E68093C40080E4809371
:1000D000C00088E18093C10086E08093C20008954B
:1000E000E0E8F0E08081826A8083E1E8F0E08081EE
:1000F0008B61808387E893E19093870080938600EB
:1001000084B1836084B90895CF93DF9300D000D089
:10011000CDB7DEB7009769F488EC90E09093890042
:10012000809388000F900F900F900F90DF91CF91E8
:100130000895B0E0A0E089839A83AB83BC83BC01BF
:10014000CD010E940C022AE737EC41EB50E46983B1
:100150007A838B839C8369817A818B819C810E94C5
:10016000720269837A838B839C8369817A818B8114
:100170009C810E94DD01462F572F509389004093A8
:100180008800D0CF1F921FB61F9211248F939F9388
:100190004A9B0AC010928500109284009F918F9113
:1001A0001F901FBE1F90189580918400909185002C
:1001B0009093050180930401F1CF9091C00095FFC9
:1001C000FCCF8093C6008091C00086FFFCCF80E406
:1001D0008093C0000895CF93DF93EC018991811142
:1001E00005C08AE0DF91CF910C94DD000E94DD0014
:1001F000F5CFCF93DF9300D000D0CDB7DEB710920C
:100200000501109204015B9A25E32A95F1F700009D
:100210005B988091040190910501892BD1F3809125
:100220000401909105019C0150E040E029833A834C
:100230004B835C83CA01B9010E940C022DEB37E3AA
:1002400046E856E369837A838B839C8369817A814C
:100250008B819C810E94720220E03CEF45E057E4D4
:1002600069837A838B839C8369817A818B819C816A
:100270000E94720220E030E040E05FE369837A830D
:100280008B839C8369817A818B819C810E9472021D
:1002900069837A838B839C8369817A818B819C813A
:1002A0000E94D6010F900F900F900F90DF91CF9189
:1002B000089500D000D00F92CDB7DEB70E94610044
:1002C0000E9453000E947000789408EC10E080E0D7
:1002D000E82E81E0F82ECE0101966C019CEBA92E50
:1002E000BB24B3949FEF29E688E1915020408040E1
:1002F000E1F700C000000E94F900362F272F462F9B
:10030000572FBC014A305105610571050CF049C0F9
:100310007F938F932F933F93FF92EF92DF92CF9231
:100320000E940703C6010E94EB00289AB092890040
:10033000A09288009FEF29E688E1915020408040FC
:10034000E1F700C0000010938900009388009FEF40
:1003500029E688E1915020408040E1F700C000008C
:10036000B0928900A09288009FEF29E688E1915021
:1003700020408040E1F700C00000289810938900D9
:10038000009388009FEF2BE782E991502040804046
:10039000E1F700C000000FB6F894DEBF0FBECDBF7E
:1003A000A1CF10938900009388009CCF0E94DD01AB
:1003B0006894B1110C946C0208950E94510288F067
:1003C0009F5798F0B92F9927B751B0F0E1F0660F19
:1003D000771F881F991F1AF0BA95C9F714C0B1305A
:1003E00091F00E946B02B1E008950C946B02672FAC
:1003F000782F8827B85F39F0B93FCCF38695779589
:100400006795B395D9F73EF4909580957095619571
:100410007F4F8F4F9F4F0895E89409C097FB3EF49C
:1004200090958095709561957F4F8F4F9F4F992341
:10043000A9F0F92F96E9BB279395F69587957795BF
:100440006795B795F111F8CFFAF4BB0F11F460FF7F
:100450001BC06F5F7F4F8F4F9F4F16C0882311F0D7
:1004600096E911C0772321F09EE8872F762F05C0EB
:10047000662371F096E8862F70E060E02AF09A9586
:10048000660F771F881FDAF7880F9695879597F97B
:10049000089557FD9058440F551F59F05F3F71F074
:1004A0004795880F97FB991F61F09F3F79F08795DB
:1004B0000895121613061406551FF2CF4695F1DF64
:1004C00008C0161617061806991FF1CF86957105F4
:1004D000610508940895E894BB2766277727CB0128
:1004E00097F908950E9485020C94F6020E94E80292
:1004F00038F00E94EF0220F0952311F00C94DF02F7
:100500000C94E50211240C946C020E94490270F3D1
:10051000959FC1F3950F50E0551F629FF001729FA8
:10052000BB27F00DB11D639FAA27F00DB11DAA1FB7
:10053000649F6627B00DA11D661F829F2227B00D04
:10054000A11D621F739FB00DA11D621F839FA00D8F
:10055000611D221F749F3327A00D611D231F849FDF
:10056000600D211D822F762F6A2F11249F57504036
:100570009AF0F1F088234AF0EE0FFF1FBB1F661FB1
:10058000771F881F91505040A9F79E3F510580F07A
:100590000C94DF020C946C025F3FE4F3983ED4F3BA
:1005A000869577956795B795F795E7959F5FC1F71E
:1005B000FE2B880F911D9695879597F9089597F9C9
:1005C0009F6780E870E060E008959FEF80EC0895F9
:1005D00000240A9416161706180609060895002422
:1005E0000A9412161306140605060895092E03949C
:1005F000000C11F4882352F0BB0F40F4BF2B11F410
:1006000060FF04C06F5F7F4F8F4F9F4F0895AEE034
:10061000B0E0EDE0F3E00C94AF050D891E8986E0B3
:100620008C831A8309838FEF9FE79E838D83AE01AE
:10063000475E5F4F6F89788DCE0101960E942A0335
:100640002F813885020F131FF80110822E96E4E0E7
:100650000C94CB05AFE0B0E0E0E3F3E00C94A1052F
:100660007C013B018A01DC0117961C921E921697B1
:1006700013968C9181FFBEC19AE0292EFE0131961E
:100680004F01D70113969C91F30193FD859193FF40
:1006900081913F01882309F444C1853239F493FDE7
:1006A000859193FF81913F01853229F4B70190E054
:1006B0000E941305E6CFB12C412C512CBFE1B5159A
:1006C00038F08B3209F188F4803201F1833221F164
:1006D00057FC3AC020ED280F2A3040F556FE1FC0C7
:1006E000B29C200D1124B22E06C08D3291F08033C1
:1006F00079F7689450F8F30193FD859193FF819108
:100700003F018111DBCF20C0689451F8689452F802
:10071000F2CF689453F8EFCF689454F8ECCF429C32
:10072000200D1124422E689455F8E5CF8E3229F41D
:1007300056FCF7C0689456F8DECF8C3619F46894EE
:1007400057F8D9CF8836B9F2982F9F7D95549330BA
:10075000C0F08336A1F18337C1F1833509F05BC066
:10076000D801CD90DD908D016B2D70E056FC02C05C
:100770006FEF7FEFC6010E94FD045C01689457F89B
:100780000AC00C5F1F4FEFE3E983AA24A394B12CA6
:100790006401E89457F853FC04C04A141B0409F0A0
:1007A00018F5342CA114B10431F5332009F469CFC4
:1007B000B70180E290E00E9413053A94F6CFD80189
:1007C0008C9189830E5F1F4FE0CFF801C190D190CB
:1007D0008F016B2D70E056FC02C06FEF7FEFC601FA
:1007E0000E9408055C01D5CFB70180E290E00E942D
:1007F00013054A94D2CFF60157FC859157FE81919B
:100800006F01B70190E00E94130531103A94B1E0F6
:10081000AB1AB108C7CF843619F0893609F071C018
:10082000F80157FE67C061917191819191918F019B
:10083000E52DEF76DE2E97FF09C090958095709597
:1008400061957F4F8F4F9F4F6894D7F82AE030E033
:10085000A4010E944305C82EC818AC2C5D2CD6FEFE
:100860000CC0E89450F8CB1440F4D4FE05C0D2FC80
:1008700003C05D2D5E7E552EAB2C54FE93C0FE0151
:10088000EC0DF11D8081803309F085C0652D697EF6
:10089000562E752D7870372E53FC93C050FE8DC0A8
:1008A000BC2CA41410F4B40CBA1854FE90C0B701B8
:1008B00080E390E00E94130552FE07C088E751FCD8
:1008C00088E590E0B7010E941305CB1408F48BC0B3
:1008D000CA94D12C8FEFC81AD80AC80CD91CD601DB
:1008E0008E916D01B70190E00E9413058C149D0458
:1008F000B1F75BCF61917191072E000C880B990BBA
:1009000096CFD52CE894D4F82AE0853729F1F52D37
:10091000F97FDF2E8037A1F058F48835A1F08F36AB
:10092000D1F0F701868197812F96E2E10C94BD0505
:100930008837B9F7D4FE02C06894D2F820E10CC021
:100940006894D4F8F7CF54FE03C02F2F2660D22E20
:1009500020E132E002C028E030E0F801D7FE15C007
:1009600041915191619171914C875D876E877F872D
:100970008F01A4016C857D858E859F850E9443052E
:10098000C82EC818E894D7F868CF81919191AC012E
:1009900070E060E0E9CF52FC02C0A3947ACFA39448
:1009A000A39477CF852D867809F473CFF6CFB7015E
:1009B00080E290E00E941305A394A414C0F3312CAC
:1009C00074CF342C3A18A41408F46FCFF8CF852DC7
:1009D000867809F47ACF8BE251FE80E257FC8DE2F3
:1009E000B70190E070CFB70180E390E00E9413055B
:1009F000BA946BCF8FEF9FEF97CFFC0105906150BA
:100A000070400110D8F7809590958E0F9F1F089524
:100A1000FC016150704001900110D8F780959095CD
:100A20008E0F9F1F08950F931F93CF93DF93182F5F
:100A3000092FEB018B8181FD09C01FEF0FEF812F83
:100A4000902FDF91CF911F910F91089582FF14C0D5
:100A50002E813F818C819D81281739073CF4E881E4
:100A6000F981CF0101969983888310838E819F81BC
:100A700001969F838E83E3CFE885F985812F0995C1
:100A8000892BA1F3DACFFA01AA27283051F12031BE
:100A900081F1E8946F936E7F6E5F7F4F8F4F9F4F12
:100AA000AF4FB1E03ED0B4E03CD0670F781F891F54
:100AB0009A1FA11D680F791F8A1F911DA11D6A0F22
:100AC000711D811D911DA11D20D009F468943F91D5
:100AD0002AE0269F11243019305D3193DEF6CF01D4
:100AE0000895462F4770405D4193B3E00FD0C9F79A
:100AF000F6CF462F4F70405D4A3318F0495D31FD07
:100B00004052419302D0A9F7EACFB4E0A695979559
:100B1000879577956795BA95C9F70097610571052F
:100B200008959B01AC010A2E069457954795379579
:100B30002795BA95C9F7620F731F841F951FA01DD3
:100B400008952F923F924F925F926F927F928F9271
:100B50009F92AF92BF92CF92DF92EF92FF920F934C
:100B60001F93CF93DF93CDB7DEB7CA1BDB0B0FB656
:100B7000F894DEBF0FBECDBF09942A883988488813
:100B80005F846E847D848C849B84AA84B984C884A9
:100B9000DF80EE80FD800C811B81AA81B981CE0FA0
:100BA000D11D0FB6F894DEBF0FBECDBFED01089585
:040BB000F894FFCFE7
:040BB400256C640048
:00000001FF
