:100000000C9434000C9482000C9451000C94510018
:100010000C9451000C9451000C9451000C9451001C
:100020000C9451000C9451000C9451000C9451000C
:100030000C9451000C9451000C9451000C945100FC
:100040000C9451000C9451000C9451000C945100EC
:100050000C9451000C9451000C9451000C945100DC
:100060000C9451000C94510011241FBECFEFD8E026
:10007000DEBFCDBF11E0A0E0B1E0E2E9F2E002C0F6
:1000800005900D92AC30B107D9F721E0ACE0B1E0BA
:1000900001C01D92A031B207E1F70E94F5000C9457
:1000A00047010C9400001092C50087E68093C400BD
:1000B00080E48093C00088E18093C10086E0809353
:1000C000C200089582E084B913B808959091C000E9
:1000D00095FFFCCF8093C6008091C00086FFFCCFC7
:1000E00080E48093C0000895CF93DF93EC01899161
:1000F000811105C08AE0DF91CF910C9466000E94C7
:100100006600F5CF1F920F920FB60F9211242F9316
:100110003F934F935F936F937F938F939F93AF938F
:10012000BF93EF93FF93CF93DF93CDB7DEB7619784
:10013000DEBFCDBF8CE0E0E0F1E0DE011196019082
:100140000D928A95E1F780918400909185004AE0B4
:10015000BE01635F7F4F0E941201CE010D960E9487
:100160007400CE0101960E94740080910C01909160
:100170000D0181309105F1F410928100809184008D
:100180009091850090930F0180930E01109285004D
:100190001092840010920D0110920C018091810048
:1001A00081608093810081E090E090930D018093C5
:1001B0000C0102C0892B91F361960FB6F894DEBF53
:1001C0000FBECDBFDF91CF91FF91EF91BF91AF9166
:1001D0009F918F917F916F915F914F913F912F915F
:1001E0000F900FBE0F901F9018950E9453008FEF35
:1001F00084B98BEF8AB981E0809369008DBB7894D4
:100200002FEF83ED90E3215080409040E1F700C054
:100210000000589A8FE59AEE0197F1F700C00000B0
:100220005898EECFBB274A3031F4992322F4BDE22F
:10023000909581959F4F0C941E01BB27FB0155277C
:10024000AA27880F991FAA1FA41710F0A41B839533
:100250005051B9F7A05DAA3308F0A95DA1930097AA
:1002600079F7B111B1931192CB010C943701DC01F4
:10027000FC01672F71917723E1F7329704C07C91DD
:100280006D9370836291AE17BF07C8F30895F89419
:02029000FFCF9E
:0C029200496E74657272757063616F00D4
:00000001FF
