S0170000416C636F6F6C44497370656E7365722E7372656326
S11300000C9434000C9480000C9451000C94510016
S11300100C9451000C9451000C9451000C94510018
S11300200C9451000C9451000C9451000C94510008
S11300300C9451000C9451000C9451000C945100F8
S11300400C9451000C9451000C9451000C945100E8
S11300500C9451000C9451000C9451000C945100D8
S11300600C9451000C94510011241FBECFEFD8E022
S1130070DEBFCDBF11E0A0E0B1E0E2E3FBE002C0EF
S113008005900D92AC31B107D9F721E0ACE1B1E0B4
S113009001C01D92A032B207E1F70E94F1000C9456
S11300A097050C9400001092C50087E68093C40065
S11300B080E48093C00088E18093C10086E080934F
S11300C0C20008959091C00095FFFCCF8093C600B4
S11300D08091C00086FFFCCF80E48093C000089527
S11300E0CF93DF93EC018881882321F021960E942D
S11300F06200F9CF8AE00E946200DF91CF910895F7
S11301001F920F920FB60F9211240F931F932F93E8
S11301103F934F935F936F937F938F939F93AF938B
S1130120BF93EF93FF93CF93DF93CDB7DEB72F97B2
S1130130DEBFCDBF80918400909185009F938F9303
S113014080E091E09F938F938E010F5F1F4F1F9369
S11301500F930E94AD02C8010E94700080911C019F
S113016090911D010F900F900F900F900F900F9092
S1130170019789F410928100E4E8F0E08081918194
S113018090931F0180931E011182108210921D0111
S113019010921C010BC0E1E8F0E080818160808353
S11301A081E090E090931D0180931C012F960FB67F
S11301B0F894DEBF0FBECDBFDF91CF91FF91EF91D9
S11301C0BF91AF919F918F917F916F915F914F916B
S11301D03F912F911F910F910F900FBE0F901F9081
S11301E01895CF93DF93CDB7DEB761970FB6F89428
S11301F0DEBF0FBECDBF0E94530080E18AB91BB899
S1130200E9E6F0E08081816080838DB381608DBBFD
S113021078948BB180618BB985E08A95F1F78BB1C5
S113022080718BB960911E0170911F01072E000C23
S1130230880B990B0E94B40120E030E040E85DE3B4
S11302400E94400223E333E349E652E40E94400162
S11302509F938F937F936F938EE091E09F938F93FF
S11302608E010F5F1F4F1F930F930E94AD02C801B1
S11302700E9470000FB6F894DEBF0FBECDBFC9CF89
S11302800E9454010C9406020E94FF0158F00E943F
S1130290F80140F029F45F3F29F00C94EF0151116B
S11302A00C943A020C94F5010E94170268F3992306
S11302B0B1F3552391F3951B550BBB27AA2762175E
S11302C07307840738F09F5F5F4F220F331F441F6B
S11302D0AA1FA9F335D00E2E3AF0E0E832D091509F
S11302E05040E695001CCAF72BD0FE2F29D0660F8C
S11302F0771F881FBB1F261737074807AB07B0E8CF
S113030009F0BB0B802DBF01FF2793585F4F3AF0D4
S11303109E3F510578F00C94EF010C943A025F3F34
S1130320E4F3983ED4F3869577956795B795F7955A
S11303309F5FC9F7880F911D9695879597F9089542
S1130340E1E0660F771F881FBB1F621773078407DE
S1130350BA0720F0621B730B840BBA0BEE1F88F7ED
S1130360E0950895E89409C097FB3EF49095809534
S1130370709561957F4F8F4F9F4F9923A9F0F92F67
S113038096E9BB279395F695879577956795B795E5
S1130390F111F8CFFAF4BB0F11F460FF1BC06F5FCB
S11303A07F4F8F4F9F4F16C0882311F096E911C0DD
S11303B0772321F09EE8872F762F05C0662371F0FE
S11303C096E8862F70E060E02AF09A95660F771F12
S11303D0881FDAF7880F9695879597F9089597F906
S11303E09F6780E870E060E008959FEF80EC0895D7
S11303F000240A9416161706180609060895002400
S11304000A9412161306140605060895092E039479
S1130410000C11F4882352F0BB0F40F4BF2B11F4ED
S113042060FF04C06F5F7F4F8F4F9F4F089557FD4C
S11304309058440F551F59F05F3F71F04795880F4E
S113044097FB991F61F09F3F79F0879508951216E5
S113045013061406551FF2CF4695F1DF08C0161691
S113046017061806991FF1CF869571056105089442
S11304700895E894BB2766277727CB0197F9089559
S11304800E9453020C9406020E94F80138F00E9464
S1130490FF0120F0952311F00C94EF010C94F50169
S11304A011240C943A020E94170270F3959FC1F331
S11304B0950F50E0551F629FF001729FBB27F00D0E
S11304C0B11D639FAA27F00DB11DAA1F649F662763
S11304D0B00DA11D661F829F2227B00DA11D621FB2
S11304E0739FB00DA11D621F839FA00D611D221F6C
S11304F0749F3327A00D611D231F849F600D211D50
S1130500822F762F6A2F11249F5750409AF0F1F0D2
S113051088234AF0EE0FFF1FBB1F661F771F881F3B
S113052091505040A9F79E3F510580F00C94EF0183
S11305300C943A025F3FE4F3983ED4F386957795A2
S11305406795B795F795E7959F5FC1F7FE2B880FE1
S1130550911D9695879597F90895AEE0B0E0E3EB89
S1130560F2E00C946E050D891E8986E08C831A8353
S113057009838FEF9FE79E838D83AE01475E5F4FB4
S11305806F89788DCE0101960E94CF02EF81F885A4
S1130590E00FF11F10822E96E4E00C948A05ABE084
S11305A0B0E0E5EDF2E00C9460056C017B018A019A
S11305B0FC0117821682838181FFCCC1CE01019692
S11305C03C01F6019381F70193FD859193FF81919D
S11305D07F01882309F4BAC1853239F493FD8591EA
S11305E093FF81917F01853229F4B60190E00E9446
S11305F0C604E7CF912C212C312CFFE1F315D8F060
S11306008B3279F038F4803279F08332A1F4232DDF
S113061020611DC08D3261F0803369F4232D216087
S113062016C0832D8260382EE32DE4603E2E2AC04E
S1130630F32DF8601DC037FC2DC020ED280F2A30A3
S113064040F08E32B9F436FC81C1232D2064322E61
S113065019C036FE06C08AE0989E200D1124922E01
S113066011C0EAE02E9E200D1124222EF32DF062FB
S11306703F2E08C08C3621F4832D8068382E02C0AA
S1130680883641F4F70193FD859193FF81917F01B1
S11306908111B3CF982F9F7D9554933028F40C5F2C
S11306A01F4F9FE399830DC0833631F0833771F078
S11306B0833509F059C021C0F801808189830E5F18
S11306C01F4F88248394912C530113C02801F2E016
S11306D04F0E511CF801A080B18036FE03C0692D75
S11306E070E002C06FEF7FEFC5010E94BB044C01B4
S11306F08201F32DFF773F2E16C0280122E0420E1F
S1130700511CF801A080B18036FE03C0692D70E051
S113071002C06FEF7FEFC5010E94B0044C01F32DBE
S1130720F0683F2E820133FC1BC0822D90E08816B6
S11307309906B0F4B60180E290E00E94C6042A94BF
S1130740F4CFF50137FC859137FE81915F01B60145
S113075090E00E94C60421102A9421E0821A910894
S11307608114910471F7E8C0843611F0893641F59B
S1130770F80137FE07C060817181828193810C5F2B
S11307801F4F08C060817181072E000C880B990BE4
S11307900E5F1F4FF32DFF763F2E97FF09C09095F4
S11307A08095709561957F4F8F4F9F4FF0683F2ED6
S11307B02AE030E0A3010E940205882E861845C075
S11307C0853731F4232D2F7EB22E2AE030E025C068
S11307D0932D997FB92E8F36C1F018F4883579F0AE
S11307E0B5C0803719F0883721F0B0C0E92FE06137
S11307F0BE2EB4FE0DC0FB2DF460BF2E09C034FE26
S11308000AC0292F2660B22E06C028E030E005C0B9
S113081020E130E002C020E132E0F801B7FE07C079
S113082060817181828193810C5F1F4F06C060815A
S1130830718180E090E00E5F1F4FA3010E940205CA
S1130840882E8618FB2DFF773F2E36FE0DC0232DF4
S11308502E7FA22E891458F434FE0BC032FC09C03A
S1130860832D8E7EA82E05C0B82CA32C03C0B82CD3
S113087001C0B92CA4FE0FC0FE01E80DF11D80815A
S1130880803321F49A2D997EA92E09C0A2FE06C0B8
S1130890B394B39404C08A2D867809F0B394A3FC6E
S11308A011C0A0FE06C0B21488F4280C922C9B1828
S11308B00EC0B21460F4B60180E290E00E94C60457
S11308C0B394F7CFB21418F42B1802C0982C212C2F
S11308D0A4FE10C0B60180E390E00E94C604A2FE0C
S11308E017C0A1FC03C088E790E002C088E590E04F
S11308F0B6010CC08A2D867859F0A1FE02C08BE2A5
S113090001C080E2A7FC8DE2B60190E00E94C6041B
S1130910891438F4B60180E390E00E94C6049A94E6
S1130920F7CF8A94F301E80DF11D8081B60190E0C0
S11309300E94C6048110F5CF222009F442CEB601EC
S113094080E290E00E94C6042A94F6CFF6018681E4
S1130950978102C08FEF9FEF2B96E2E10C947C0508
S1130960FC010590615070400110D8F78095909576
S11309708E0F9F1F0895FC0161507040019001107B
S1130980D8F7809590958E0F9F1F08950F931F930E
S1130990CF93DF93FB01238121FD03C08FEF9FEFF2
S11309A02CC022FF16C0468157812481358142170D
S11309B0530744F4A081B1819D012F5F3F4F3183E0
S11309C020838C93268137812F5F3F4F3783268383
S11309D014C08B01EC01FB010084F185E02D099525
S11309E0892BE1F6D80116968D919C911797019663
S11309F017969C938E931697CE01DF91CF911F91FA
S1130A000F910895FA01AA27283051F1203181F17C
S1130A10E8946F936E7F6E5F7F4F8F4F9F4FAF4F02
S1130A20B1E03ED0B4E03CD0670F781F891F9A1F15
S1130A30A11D680F791F8A1F911DA11D6A0F711DC9
S1130A40811D911DA11D20D009F468943F912AE0D5
S1130A50269F11243019305D3193DEF6CF010895BD
S1130A60462F4770405D4193B3E00FD0C9F7F6CFEE
S1130A70462F4F70405D4A3318F0495D31FD4052B6
S1130A80419302D0A9F7EACFB4E0A695979587954C
S1130A9077956795BA95C9F700976105710508952B
S1130AA09B01AC010A2E06945795479537952795D7
S1130AB0BA95C9F7620F731F841F951FA01D08956F
S1130AC02F923F924F925F926F927F928F929F925A
S1130AD0AF92BF92CF92DF92EF92FF920F931F9348
S1130AE0CF93DF93CDB7DEB7CA1BDB0B0FB6F894F9
S1130AF0DEBF0FBECDBF09942A88398848885F8439
S1130B006E847D848C849B84AA84B984C884DF80A9
S1130B10EE80FD800C811B81AA81B981CE0FD11D8D
S1130B200FB6F894DEBF0FBECDBFED010895F89463
S1050B30FFCFF1
S1130B32436F6E7461646F72203D202564004469C2
S10F0B427374616E6365203D202566001D
S9030000FC
